{
  "contractName": "Marketplace",
  "abi": [
    {
      "anonymous": false,
      "inputs": [
        {
          "indexed": false,
          "internalType": "uint256",
          "name": "id",
          "type": "uint256"
        },
        {
          "indexed": false,
          "internalType": "string",
          "name": "name",
          "type": "string"
        },
        {
          "indexed": false,
          "internalType": "uint256",
          "name": "price",
          "type": "uint256"
        },
        {
          "indexed": false,
          "internalType": "address payable",
          "name": "owner",
          "type": "address"
        },
        {
          "indexed": false,
          "internalType": "bool",
          "name": "isPurchased",
          "type": "bool"
        }
      ],
      "name": "ProductCreated",
      "type": "event"
    },
    {
      "anonymous": false,
      "inputs": [
        {
          "indexed": false,
          "internalType": "uint256",
          "name": "id",
          "type": "uint256"
        },
        {
          "indexed": false,
          "internalType": "string",
          "name": "name",
          "type": "string"
        },
        {
          "indexed": false,
          "internalType": "uint256",
          "name": "price",
          "type": "uint256"
        },
        {
          "indexed": false,
          "internalType": "address payable",
          "name": "owner",
          "type": "address"
        },
        {
          "indexed": false,
          "internalType": "bool",
          "name": "isPurchased",
          "type": "bool"
        }
      ],
      "name": "ProductPurchased",
      "type": "event"
    },
    {
      "inputs": [],
      "name": "productCount",
      "outputs": [
        {
          "internalType": "uint256",
          "name": "",
          "type": "uint256"
        }
      ],
      "stateMutability": "view",
      "type": "function",
      "constant": true
    },
    {
      "inputs": [
        {
          "internalType": "uint256",
          "name": "",
          "type": "uint256"
        }
      ],
      "name": "products",
      "outputs": [
        {
          "internalType": "uint256",
          "name": "id",
          "type": "uint256"
        },
        {
          "internalType": "string",
          "name": "name",
          "type": "string"
        },
        {
          "internalType": "uint256",
          "name": "price",
          "type": "uint256"
        },
        {
          "internalType": "address payable",
          "name": "owner",
          "type": "address"
        },
        {
          "internalType": "bool",
          "name": "isPurchased",
          "type": "bool"
        }
      ],
      "stateMutability": "view",
      "type": "function",
      "constant": true
    },
    {
      "inputs": [
        {
          "internalType": "string",
          "name": "_name",
          "type": "string"
        },
        {
          "internalType": "uint256",
          "name": "_price",
          "type": "uint256"
        }
      ],
      "name": "createProduct",
      "outputs": [],
      "stateMutability": "nonpayable",
      "type": "function"
    },
    {
      "inputs": [
        {
          "internalType": "uint256",
          "name": "_id",
          "type": "uint256"
        }
      ],
      "name": "purchaseProduct",
      "outputs": [],
      "stateMutability": "payable",
      "type": "function",
      "payable": true
    }
  ],
  "bytecode": "0x60806040526000805534801561001457600080fd5b50610d1e806100246000396000f3fe60806040526004361061003f5760003560e01c806338e76a03146100445780637acc0b2014610060578063e0f6ef87146100a1578063e9300c6c146100cc575b600080fd5b61005e60048036038101906100599190610800565b6100f5565b005b34801561006c57600080fd5b5061008760048036038101906100829190610800565b61044d565b604051610098959493929190610931565b60405180910390f35b3480156100ad57600080fd5b506100b6610538565b6040516100c3919061098b565b60405180910390f35b3480156100d857600080fd5b506100f360048036038101906100ee9190610adb565b61053e565b005b6000600160008381526020019081526020016000206040518060a00160405290816000820154815260200160018201805461012f90610b66565b80601f016020809104026020016040519081016040528092919081815260200182805461015b90610b66565b80156101a85780601f1061017d576101008083540402835291602001916101a8565b820191906000526020600020905b81548152906001019060200180831161018b57829003601f168201915b50505050508152602001600282015481526020016003820160009054906101000a900473ffffffffffffffffffffffffffffffffffffffff1673ffffffffffffffffffffffffffffffffffffffff1673ffffffffffffffffffffffffffffffffffffffff1681526020016003820160149054906101000a900460ff1615151515815250509050600081606001519050600082600001511180156102515750600054826000015111155b61025a57600080fd5b816040015134101561026b57600080fd5b81608001511561027a57600080fd5b3373ffffffffffffffffffffffffffffffffffffffff16826060015173ffffffffffffffffffffffffffffffffffffffff1614156102b757600080fd5b33826060019073ffffffffffffffffffffffffffffffffffffffff16908173ffffffffffffffffffffffffffffffffffffffff16815250506001826080019015159081151581525050816001600085815260200190815260200160002060008201518160000155602082015181600101908051906020019061033a929190610713565b506040820151816002015560608201518160030160006101000a81548173ffffffffffffffffffffffffffffffffffffffff021916908373ffffffffffffffffffffffffffffffffffffffff16021790555060808201518160030160146101000a81548160ff0219169083151502179055509050508073ffffffffffffffffffffffffffffffffffffffff166108fc83604001519081150290604051600060405180830381858888f193505050501580156103f9573d6000803e3d6000fd5b507f79558d0d7d4d900e2f15c4cc0a665f1acdbe415e44de900ecdd1e5bf12b56f4e6000548360200151846040015185606001516001604051610440959493929190610931565b60405180910390a1505050565b600160205280600052604060002060009150905080600001549080600101805461047690610b66565b80601f01602080910402602001604051908101604052809291908181526020018280546104a290610b66565b80156104ef5780601f106104c4576101008083540402835291602001916104ef565b820191906000526020600020905b8154815290600101906020018083116104d257829003601f168201915b5050505050908060020154908060030160009054906101000a900473ffffffffffffffffffffffffffffffffffffffff16908060030160149054906101000a900460ff16905085565b60005481565b6000825111610582576040517f08c379a000000000000000000000000000000000000000000000000000000000815260040161057990610be4565b60405180910390fd5b600081116105c5576040517f08c379a00000000000000000000000000000000000000000000000000000000081526004016105bc90610c50565b60405180910390fd5b6000808154809291906105d790610c9f565b91905055506040518060a0016040528060005481526020018381526020018281526020013373ffffffffffffffffffffffffffffffffffffffff168152602001600015158152506001600080548152602001908152602001600020600082015181600001556020820151816001019080519060200190610658929190610713565b506040820151816002015560608201518160030160006101000a81548173ffffffffffffffffffffffffffffffffffffffff021916908373ffffffffffffffffffffffffffffffffffffffff16021790555060808201518160030160146101000a81548160ff0219169083151502179055509050507fbc59c0c8165864dcceb377dd07d8f431d4303f8e501cb0a0374a10cc68d718366000548383336000604051610707959493929190610931565b60405180910390a15050565b82805461071f90610b66565b90600052602060002090601f0160209004810192826107415760008555610788565b82601f1061075a57805160ff1916838001178555610788565b82800160010185558215610788579182015b8281111561078757825182559160200191906001019061076c565b5b5090506107959190610799565b5090565b5b808211156107b257600081600090555060010161079a565b5090565b6000604051905090565b600080fd5b600080fd5b6000819050919050565b6107dd816107ca565b81146107e857600080fd5b50565b6000813590506107fa816107d4565b92915050565b600060208284031215610816576108156107c0565b5b6000610824848285016107eb565b91505092915050565b610836816107ca565b82525050565b600081519050919050565b600082825260208201905092915050565b60005b8381101561087657808201518184015260208101905061085b565b83811115610885576000848401525b50505050565b6000601f19601f8301169050919050565b60006108a78261083c565b6108b18185610847565b93506108c1818560208601610858565b6108ca8161088b565b840191505092915050565b600073ffffffffffffffffffffffffffffffffffffffff82169050919050565b6000610900826108d5565b9050919050565b610910816108f5565b82525050565b60008115159050919050565b61092b81610916565b82525050565b600060a082019050610946600083018861082d565b8181036020830152610958818761089c565b9050610967604083018661082d565b6109746060830185610907565b6109816080830184610922565b9695505050505050565b60006020820190506109a0600083018461082d565b92915050565b600080fd5b600080fd5b7f4e487b7100000000000000000000000000000000000000000000000000000000600052604160045260246000fd5b6109e88261088b565b810181811067ffffffffffffffff82111715610a0757610a066109b0565b5b80604052505050565b6000610a1a6107b6565b9050610a2682826109df565b919050565b600067ffffffffffffffff821115610a4657610a456109b0565b5b610a4f8261088b565b9050602081019050919050565b82818337600083830152505050565b6000610a7e610a7984610a2b565b610a10565b905082815260208101848484011115610a9a57610a996109ab565b5b610aa5848285610a5c565b509392505050565b600082601f830112610ac257610ac16109a6565b5b8135610ad2848260208601610a6b565b91505092915050565b60008060408385031215610af257610af16107c0565b5b600083013567ffffffffffffffff811115610b1057610b0f6107c5565b5b610b1c85828601610aad565b9250506020610b2d858286016107eb565b9150509250929050565b7f4e487b7100000000000000000000000000000000000000000000000000000000600052602260045260246000fd5b60006002820490506001821680610b7e57607f821691505b60208210811415610b9257610b91610b37565b5b50919050565b7f706c6561736520656e7465722076616c69642070726f64756374206e616d6500600082015250565b6000610bce601f83610847565b9150610bd982610b98565b602082019050919050565b60006020820190508181036000830152610bfd81610bc1565b9050919050565b7f706c6561736520656e7465722076616c69642070726f64756374207072696365600082015250565b6000610c3a602083610847565b9150610c4582610c04565b602082019050919050565b60006020820190508181036000830152610c6981610c2d565b9050919050565b7f4e487b7100000000000000000000000000000000000000000000000000000000600052601160045260246000fd5b6000610caa826107ca565b91507fffffffffffffffffffffffffffffffffffffffffffffffffffffffffffffffff821415610cdd57610cdc610c70565b5b60018201905091905056fea26469706673582212202a0b66da5d0855ed7124cfac2eab01422b60410f77aa339910f97cb08979907164736f6c634300080b0033",
  "immutableReferences": {},
  "source": "// SPDX-License-Identifier: MIT\npragma solidity ^0.8.0;\n\ncontract Marketplace{\n     uint public productCount = 0;\n     mapping(uint => Product) public products;\n     struct Product {\n          uint id;\n          string name;\n          uint price;\n          address payable owner;\n          bool isPurchased;\n     }\n\n     event ProductCreated(uint id,string name,uint price, address payable owner, bool isPurchased);\n     event ProductPurchased(uint id,string name,uint price, address payable owner, bool isPurchased);\n\n     function createProduct(string memory _name,uint _price) public{\n          // validate product details\n          require(bytes(_name).length > 0,'please enter valid product name');\n          require(_price > 0,'please enter valid product price');\n\n          productCount++;\n          products[productCount] = Product(productCount,_name,_price,payable(msg.sender),false);\n          emit ProductCreated(productCount, _name, _price, payable(msg.sender), false);\n     }\n\n     function purchaseProduct(uint _id) public payable{\n          Product memory _product = products[_id];\n          address payable _seller = _product.owner;\n\n          // validate request\n          require(_product.id > 0 && _product.id <= productCount );\n          require(msg.value >= _product.price);\n          require(!_product.isPurchased);\n          require(_product.owner != msg.sender);\n          \n\n          _product.owner = payable(msg.sender);\n          _product.isPurchased = true;\n          products[_id] = _product;\n          payable(_seller).transfer(_product.price);\n          emit ProductPurchased(productCount, _product.name, _product.price, _product.owner, true);\n     }\n}\n",
  "sourcePath": "/media/bohem/3AM/my projects/blockchain/truffle/react/contracts/Marketplace.sol",
  "compiler": {
    "name": "solc",
    "version": "0.8.11+commit.d7f03943.Emscripten.clang"
  },
  "schemaVersion": "3.4.4",
  "updatedAt": "2022-02-24T14:33:04.260Z",
  "networkType": "ethereum",
  "devdoc": {
    "kind": "dev",
    "methods": {},
    "version": 1
  },
  "userdoc": {
    "kind": "user",
    "methods": {},
    "version": 1
  }
}